:0400000063C0FECF0C
:10000400FDCFFCCFFBCFFACFF9CFF8CFF7CFF6CFA8
:10001400F5CFF4CFF3CFF2CFF1CFF0CFEFCFEECFD8
:1000240087C0ECCFDDC0EACFE9CFE8CF64C4E6CF28
:10003400870A0000000082000000000000000000A9
:100044008F0200FFFF4002000000000000000000DB
:100054000000000000000000000000001027E8037A
:1000640064000A00010000100001100001000000FB
:10007400000000000000000043757272656E742079
:100084006D6F64653A2025690A0044696769746183
:100094006C2046696C7465723A20534C4F573D2569
:1000A400692C2053443D25692C2053534C4F573D14
:1000B40025690A0007000A00030072000100A80174
:1000C400B8000000F894EE27EFBBE5BF8DE0A2E096
:1000D400BB27ED938A95E9F780E092E0A0E0B1E0D8
:1000E400ED930197E9F7EAEBF0E08591959100979C
:1000F40061F0A591B59105901590BF01F0010590AF
:100104000D920197E1F7FB01F0CFE0E0EEBBEFEFDA
:10011400EDBFE2E0EEBFC0E8D1E097C07DD5A98194
:10012400EA2B04C079D5E095A981EA2322960895A3
:100134000A921A92FA926A937A938A939A93AA9356
:10014400BA93EA93FA93EFB7EA9338D61091C000C2
:100154000091C600E12FEC7199F5E82D8394F0E04D
:10016400EA56FE4F0083E8E0E81509F48824A394D6
:10017400E8E0EA1511F4AA24F09AE2E0EA1501F5A0
:10018400E0919601F0E0E130A0E0FA0771F44C9BB5
:1001940006C0A0919701A63108F443D505C0A091EB
:1001A4009701AA3008F43DD50AC0E230A0E0FA076E
:1001B40031F4A0E42DD0E09197013CD529D0AA24B4
:1001C40009911991E991EFBFF991E991B991A99137
:1001D4009991899179916991F9901990099018955B
:1001E400EA93FA93EFB7EA93BB2069F0BA94EC2D43
:1001F400C394F0E0E256FE4FE081E093C600E8E0ED
:10020400EC1509F4CC24E991EFBFF991E991189523
:10021400AA93E8E0EB15E9F3F894BB2021F4E0910C
:10022400C000E07269F4E92D9394F0E0E256FE4FC9
:10023400A881A083E8E0E91509F49924B39403C0E4
:10024400E881E093C60078944CC1E0E8E093610053
:10025400E0E0E0936100E4E4E4B9E3E0E5B9E7B9A0
:10026400E0E0E8B9EAB9E0E9EBB9E0E0E4BDE5BD16
:10027400E6BDE7BDE8BDE0938000E0938100E09334
:100284008500E0938400E0938700E0938600E09388
:100294008900E0938800E0938B00E0938A00E09368
:1002A400B600E093B000E093B100E093B200E093B5
:1002B400B300E093B400E0936E00E0936F00E0932A
:1002C4007000E0936900EDBBE0936800E093C00028
:1002D400E8EDE093C100E6E0E093C200E0E0E093E3
:1002E400C500ECE0E093C400E0E8E0BFE0E0E093A8
:1002F4007B00E0937F00E0937A00ECBDAEE3B0E0D6
:1003040069D27894442041F51E9A99D42A9A97D4B4
:100314004C990EC097D4A881A63148F498D4EC5BCC
:10032400FF4F9CD47AD0E881EF5FE883F4CF0DC00F
:1003340089D4A881AA3048F48AD4EC5CFF4F8ED4C7
:100344006CD0E881EF5FE883F4CF219678D4E1E0C4
:100354004E2EC9D01E985FC02297A0E04B99A1E011
:10036400E0E04A99E1E0EE0FAE0FE0E03399E1E01E
:10037400EE0FEE0FAE0FE0E03299E1E0EE0FEE0F7C
:10038400EE0FEA0FE983A0E04F99A1E0E1E0EA9FD4
:10039400602DA0E01899A1E0E2E0EA9FF0016E0F61
:1003A400A0E01999A1E0E4E0EA9FF001E60FE883F8
:1003B400A9816A16A9F01E9A49D069804C9907C090
:1003C400A981AC3010F01E9A01C01E9801C01E987D
:1003D400ECE7F0E04AD4EB814BD484E0DDD12696FF
:1003E400A8815A16B9F01E9A89D07DD01E985880DB
:1003F400EEE8F0E03AD4E0E01999E1E039D4E0E045
:100404001899E1E035D4E0E04F99E1E031D48CE093
:10041400C3D12E96229676CFFFCFAA932397E0E0FE
:10042400E883EC81E983EB81EA83ED81EA93FE01C1
:1004340031961BD4E3E0EA93E0E0F0E016D4A0E0C8
:10044400F5D1A2E3B0E06DD426960895AA93A881CD
:10045400A93058F412D466DE15D44B9B03C04098DF
:10046400419A02C0409A41983BC04B9B03C04098BC
:10047400419A02C0409A419800D450DEE881F0E0ED
:10048400E930A0E0FA0721F403D44CDE06D41BC003
:10049400EA30A0E0FA0721F4FBD340DEFED313C018
:1004A400EB30A0E0FA0729F4E8D338DEF1D33ADEE2
:1004B40006C0EC30A0E0FA0731F4EAD32FDEE09175
:1004C4008901F0D32BDEDED33A92E6E0EA93A091E1
:1004D4008601A3DF3A92E9E0EA93A09189019DDFC6
:1004E40002D021960895E0918001DCD31BDEDDD398
:1004F400E0918001D7D312DED8D308954F9B05C075
:10050400E0918501CFD30ADE04C0E0918501CAD30E
:1005140009DE189B03C0D2D301DE02C0CFD302DEB2
:10052400199B05C0E0918201BDD3F8DD04C0E091C0
:100534008201B8D3F7DD3A92E1E0EA93A091810118
:100544006CDFA0D33A92E5E0EA93A091850165DFE0
:10055400CADF0895B8D3AA815BDEA881B981ED9181
:10056400FD913196FE93EE935FC1ADD3269722D4CD
:1005740010E0AC85BD85E0E0F0E0ED93FC93EA8902
:10058400FB893196EA8BFB8B3197E4912E2FE03077
:1005940009F4FCC0E12FE03031F4253211F411E00C
:1005A40001C094D3F2C0E130A1F4253211F48ED30A
:1005B400EBC012E040E000E02D3211F401E0E5C0B0
:1005C4002B3211F44BE2E1C0203211F440E2DDC0E1
:1005D40002C0E23039F450E013E0203311F4006833
:1005E400D4C003C0E33009F0D0C0203310F02A3364
:1005F40008F007C0AAE05A9F502DE22FE0535E0F87
:10060400C4C0E22FE33639F468D36AD366D3A48135
:10061400AA936AD3B9C0E33729F46CD36DD3E5D276
:100624001E2F07C0E03749F465D366D3E9D21E2FE5
:10063400086002600F7730E02DC0E43611F0E9362F
:1006440011F4046002C0E53729F4E0E6F0E05DD37C
:1006540015E00BC0E83511F4086003C0E83709F071
:1006640093C0EAE6F0E051D314E002FF11C042D394
:100674004FD3AB85AA2332F4EA85FB8560D3EA879E
:10068400FB874DE2403011F01F5F01C00B7F02C0B9
:1006940031D33ED300FD10C0151770F407FF08C016
:1006A40002FF04C00B7F242F115001C020E301C0BE
:1006B40020E20CD35150F0CF312F01FF15C0303060
:1006C40091F003FF05C0EE81FF8125911ED305C083
:1006D400AE81BF812D91AE83BF83F8D2503009F033
:1006E40051503150ECCF47C020E3EE81FF814FD30E
:1006F400E887F987EE81FF81329607D3E885F9858B
:10070400AA85BB85AE17BF0750F02F5FA885B985B2
:10071400EA85FB85EA1BFB0BEA87FB87EFCF2A33CD
:1007240028F003FF02C0295F01C0295D04FD19C040
:10073400213320F4A885B985119709F409C053170A
:1007440010F000FF01C011C020E207FF0AC020E33F
:10075400006102FF06C00B7F4A93C6D2503009F0F5
:100764005150B4D2503009F051503150A885B98558
:10077400129708F0B9CF00FF07C0503029F051504C
:10078400E0E2EA93B1D2F9CF10E0F9CEAC85BD85B1
:10079400FAD217D364960895FF92F82E26970ED3B3
:1007A400DE011496C8D28D01E0E0EC83ED83EE8384
:1007B400EF83DE011896BFD2E6D257D21A930A937A
:1007C400ECEAF2E052D2DE011896CFDEFED2289691
:1007D400FF90089578D21A93F29AE7E0E093A80183
:1007E400E0E0E093B101E093B201E093B301E09360
:1007F400B401449A459AE093BC00E091B900EC7FBF
:10080400E093B900E981FA81A4EFB1E0A9D21E2FE7
:10081400183008F018501093B800E091BC00E0784C
:10082400E564E093BC00188123960895AA93249765
:10083400F29B5EC0EA85EE0FE093A901E885F98595
:10084400E093AA01F093AB01E0E0E093A601EF810D
:10085400E093AC01ED81FE81E093AD01F093AE0134
:10086400E0E0E093A701EC81E093AF01E6E0E093E0
:10087400A8017894EF81E03079F0E885F985309724
:10088400B9F1EC81E03021F0AD81BE81109709F01F
:1008940001C02EC0F19A0DC0EC81E03021F1ED8150
:1008A400FE81309729F1E091A901E160E093A9016B
:1008B400F198F298E091BC00EF70E06AE093BC001C
:1008C400E0E2F1EA67E070E02AD2F2990CC063D268
:1008D40031976040704023D229F4E5E0E093A80109
:1008E400F29A06C0F2CFA091A801E0E034D201C090
:1008F400E0E02B9608950A921A92FA926A937A93F8
:100904008A939A93AA93BA93EA93FA93EFB7EA93E2
:1009140051D21091A7010091A6013091AC01209110
:10092400A801E12FA091AD01B091AE01F0E0EA0F72
:10093400FB1FAF01E091B900E87FE83011F420E03B
:1009440002C0E03119F4E091A90110C0E83111F0BE
:10095400E83241F5031798F4E02F0F5FA091AA0144
:10096400B091AB01F0E0AE0FBF1FEC91E093BB0080
:10097400E091BC00EF70E068E093BC0012C0E0912D
:10098400AF011E1768F4E091A901E160E093A901A9
:10099400F198E091BC00EF70E06AE093BC000DC1F7
:1009A40038C00BC1E03531F4E091BB00DA01EC93BF
:1009B4001F5F02C0E03489F4E091AF01E1501E17DB
:1009C40028F0E091BC00EF70E06804C0E091BC0046
:1009D400EF70E06CE093BC00F0C0E83531F4E091D6
:1009E400BB00DA01EC931F5F02C0E03209F402C0DD
:1009F400E03309F402C0E83469F4203051F4F19B87
:100A040003C0031728F005C0E091AF011E1708F4D6
:100A140024E0CCC0E83331F422E0E091BC00EF7074
:100A2400E068C8C0E83611F0E83711F422E005C0E8
:100A3400E03611F0E037A1F420E010E0F198E09105
:100A4400B001E03031F421E0E091BC00EF70E068E7
:100A540004C0E091BC00EF70E06CE093BC00ADC05A
:100A6400E03811F0E03939F5F19B02C021E09EC075
:100A7400E091BB00DA01EC931F5FE091B0011E1717
:100A8400C0F4E091B101F091B201309711F426E085
:100A94008DC0A0E0E091B101F091B2010995E03080
:100AA40039F0E091BC00EF70E06CE093BC0085C0CD
:100AB40001C0F19A02C0E83809F402C0E83939F4F7
:100AC400E091BC00EF70E068E093BC0076C0E03ACF
:100AD400B1F4E091BC00EF70E06CE093BC00F29ADA
:100AE400E091B101F091B201309739F0A1E0E091C9
:100AF400B101F091B201099501C026E05EC0E03B6E
:100B040011F422E002C0E83AB1F4E091B301F091AB
:100B1400B401309759F0A0E0E091B301F091B40131
:100B240009953E2FE03011F020E002C026E03EC0DF
:100B340000E0F19802C0E83BF9F4F19B02C021E027
:100B440035C0E02F0F5FA091AA01B091AB01F0E096
:100B5400AE0FBF1FEC91E093BB00031728F4E091A4
:100B6400BC00EF70E06C05C0F19AE091BC00EF703E
:100B7400E068E093BC0021C0E03C11F0E83C99F44B
:100B8400E091BC00EF70E06CE093BC00E091B30135
:100B9400F091B401309731F0A1E0E091B301F0910C
:100BA400B401099509C0E03041F423E0E091BC00B0
:100BB400EF70E06DE093BC00F29A1093A7010093EC
:100BC400A6012093A8013093AC01FBD02696E991AD
:100BD400EFBFF991E991B991A9919991899179918D
:100BE4006991F9901990099018956DD0A991B991CE
:100BF400EE27FF276D91662311F03196FBCF089500
:100C040062D0AA27BB27E991F9910590002011F041
:100C14001196FBCFFD010895AA93E881A1E093D03A
:100C24000895E0919701F0E0E058FE4FA0919801FB
:100C3400A0830895F0E0E058FE4FA0810895A4E653
:100C4400B0E06FC02197E0E0E883E8830895A881CD
:100C5400B0E0A058BE4FE881F0E00895E491EC9331
:100C64003A92E981EA93EA81E5CFFA93EA93089507
:100C7400FF276627772799D00895E0918201EA93A8
:100C8400A7E008953A92E2E0EA93A0918201C5CBED
:100C9400E0918601EA93A0E00895E0918901EA9346
:100CA400A0E040CAEA93A0E008953A92E0E0EA9313
:100CB400A0918001B2DBAAE0B0E033C0E0918101F1
:100CC400EA93A5E00895BA93AA9308952A93AD856B
:100CD400BE85EF85F88909950895E889F98908950D
:100CE4003497E88BF98B0895AD85BE85EF85F88937
:100CF40009950895F2DFF4CFA889B989149643D0F1
:100D0400EE83FF83AE81BF810895EE83FF83089550
:100D1400A889B989149637D0EA87FB87089540D00B
:100D24000895109639F08AEF90E00197F1F7A895AD
:100D34001197C9F708950024AF0DB01D0895F195DA
:100D4400E195F0400895EE230E2EEA2F19F0EE0FF0
:100D54000A94E9F70895EA17E1E009F0EE27089507
:100D64000024112490E1AA0FBB1F001C111C0E1AB1
:100D74001F0A18F40E0E1F1E01C0A1609A9599F760
:100D8400FD01D0010895ED91FC911197089505900E
:100D9400F491E02D0895E881F9816A817B810895B9
:100DA400E883F9836A837B8308957A936A93FA9339
:100DB400EA9308955A934A933A932A931A930A9377
:100DC40008955D814C813B812A81198108810895B0
:00000001FF
