:0C00000089C0FECFFDCFFCCFFBCFFACFB4
:10000C00F9CFF8CFF7CFF6CFF5CFF4CFF3CFF2CFC0
:10001C00F1CFF0CFEFCFEECFADC0ECCF03C1EACF35
:10002C00E9CFE8CF07C5E6CF8F0A00FFFF8082003B
:10003C00000000008F0200FFFF40020000000000E3
:10004C0000000000000000000000000000000000A4
:10005C001027E80364000A000100001000011000E2
:10006C00010000000000FF10FFFF0000000034340E
:10007C003930206D6F64650A0D0043757272656EC0
:10008C0074206D6F64653A2025690A0D0044696718
:10009C006974616C2046696C7465723A20534C4FDC
:1000AC00573D25692C2053443D25692C2053534C36
:1000BC004F573D25690A0D0077726974652065728A
:1000CC00726F72210A0D006572726F7220636F6E0F
:1000DC0074726F6C0A0D004453440A0D0050434D6A
:1000EC000A0D0034342E31206B487A0A0D00343856
:1000FC00206B487A0A0D000007000C0003006E000C
:10010C000100AA0104010000F894EE27EFBBE5BF43
:10011C008DE0A2E0BB27ED938A95E9F780E092E0B1
:10012C00A0E0B1E0ED930197E9F7E6E0F1E085910D
:10013C009591009761F0A591B59105901590BF012F
:10014C00F00105900D920197E1F7FB01F0CFE0E093
:10015C00EEBBEFEFEDBFE2E0EEBFC0E8D1E0A9C02F
:10016C00FAD5A981EA2B04C0F6D5E095A981EA233A
:10017C00229608950A921A92FA926A937A938A9323
:10018C009A93AA93BA93EA93FA93EFB7EA93F6D6B3
:10019C001091C0000091C600E12FEC7199F5EC2D87
:1001AC00C394F0E0EA56FE4F0083E8E0EC1509F446
:1001BC00CC24E394E8E0EE1511F4EE24F09AE2E09E
:1001CC00EE1501F5E0919601F0E0E130A0E0FA07C0
:1001DC0071F44C9B06C0A0919701A63108F4C0D5D0
:1001EC0005C0A0919701AA3008F4BAD50AC0E23034
:1001FC00A0E0FA0731F4A0E43AD0E0919701B9D528
:10020C0036D0EE2409911991E991EFBFF991E9915A
:10021C00B991A9919991899179916991F9901990D4
:10022C0009901895AA93EA93FA93EFB7EA93A6D597
:10023C00E030B9F0A3D5E150E093A701E091A6011D
:10024C00EF5FE093A601E150F0E0E256FE4FE08153
:10025C00E093C600A091A601A83019F4E0E0E09369
:10026C00A601E991EFBFF991E991A9911895AA938B
:10027C00A091A701A830E1F3F89480D5E03021F4E7
:10028C00E091C000E07281F4ED2DD394F0E0E256E1
:10029C00FE4FA881A083E8E0ED1509F4DD246ED5AE
:1002AC00EF5FE093A70103C0E881E093C600789468
:1002BC00EEC1E0E8E0936100E0E0E0936100E4E08F
:1002CC00E4B9E3E0E5B9E7B9E0E0E8B9EAB9E0E9B7
:1002DC00EBB9E0E0E4BDE5BDE6BDE7BDE8BDE0930C
:1002EC008000E0938100E0938500E0938400E0932C
:1002FC008700E0938600E0938900E0938800E09308
:10030C008B00E0938A00E093B600E093B000E0939A
:10031C00B100E093B200E093B300E093B400E0933B
:10032C006E00E0936F00E0937000E0936900EDBB0A
:10033C00E0936800E093C000E8EDE093C100E6E0D4
:10034C00E093C200E0E0E093C500ECE0E093C40071
:10035C00E0E8E0BFE0E0E0937B00E0937F00E09317
:10036C007A00ECBDAEE3B0E0D4D27894552009F01D
:10037C004AC02497E0E0E883E983EA83EB83A8ECA6
:10038C0000D5E0E0EA83EB832A98A4E6FAD42A9A13
:10039C00A0E03CD1A4E6F5D4A1E067D14C9B10C001
:1003AC002197F1D4F0D4A881A63148F4EFD4E05CC5
:1003BC00FF4FE491EC93E881EF5FE883F4CF19C031
:1003CC002197E1D4EAE7F0E0E8D4EAD4DCD4A881C0
:1003DC00AA3078F4DBD4EC5CFF4FE491EC938A9276
:1003EC00E981EA93EA81C5D489D0E881EF5FE8839B
:1003FC00EECF2196A2E3C5D4E1E05E2ED5D4A0E0E9
:10040C0034D1249679C02297A0E04A99A1E0E0E08B
:10041C003399E1E0EE0FEA0FE983A0E04F99A1E0F8
:10042C00E1E0EA9F602DA0E01899A1E0E2E0EA9FEC
:10043C00F0016E0FA0E01999A1E0E4E0EA9FF00151
:10044C00E60FE883E0E01E99E1E0A92DB0E0F0E0D2
:10045C00E7FDFFEFEA17FB0741F0E0E01E99E1E052
:10046C009E2EA0E01E99A1E000D1A981BB27E0E05F
:10047C004B99E1E0F0E0AE0FBF1FE72DF0E0EA177B
:10048C00FB07F1F093D4A9815FD0E0E04B99E1E058
:10049C00A981EA0F7E2E4C9908C0A981AC3010F0CE
:1004AC00A1E001C0A0E0E1D002C0A0E0DED0E6E80F
:1004BC00F0E073D4EB817ED484E00DD2269674D414
:1004CC00A881AA16C1F072D4ADD0A880E9E9F0E0F9
:1004DC0064D4E0E01999E1E06DD4E0E01899E1E032
:1004EC0069D4E0E04F99E1E065D48CE0F4D12E962C
:1004FC005BD4A0E0BAD0229639CFFFCFAA93229733
:10050C001A9310E0EC81E983EB81EA8358D4E2E0A2
:10051C00EA93E0E0F0E041D4A0E027D2E03019F417
:10052C00E4ECF0E051D4A8EC2CD449D44FD4E6E060
:10053C00F0E033D4A1E019D2E03019F4E3EDF0E0AF
:10054C0043D4188126960895AA934E9B06C0E3EED9
:10055C00F0E03AD43ED404DE05C0E9EEF0E034D449
:10056C0038D402DEE0938201E881F0E0309739F470
:10057C0035D439D440D447D44AD44ED426C0E130F3
:10058C00A0E0FA0749F42AD44CD435D4E9DDE09341
:10059C0081013DD441D419C0E230A0E0FA0751F4F6
:1005AC001DD421D446D44DD4A4E0DADDE0938101EE
:1005BC0033D40BC0E330A0E0FA0749F40FD431D4A4
:1005CC0038D425D442D4A1E0CBDDE09385014B9BFC
:1005DC0005C0409A4198EFEEF0E004C04098419A73
:1005EC00EAEFF0E0FA93EA93DBD38A92EFD331D4BB
:1005FC008A92E6E0EA93A091860180DF8A92E9E094
:10060C00EA93A09189017ADFCFD341C0AA93E88104
:10061C00E03019F42DD4EE7F02C02AD4E160AE2F65
:10062C006DDF35C04F9B04C010D4A0E099DD03C032
:10063C000CD4A0E099DDE0938501189B04C001D493
:10064C00A5E08EDD03C0FDD3A5E08EDDE093810136
:10065C00199B03C013D484DD02C010D485DDE09354
:10066C0082018A92B3D3F5D30895AA93E881E0303E
:10067C0021F0E7D3A0E074DD03C0E3D3A0E074DD88
:10068C00E09381018A92A2D3A091810137DF219658
:10069C000895F9D3AA81EBDDA881B981ED91FD9183
:1006AC003196FE93EE935FC1EED3269763D410E0A0
:1006BC00AC85BD85E0E0F0E0ED93FC93EA89FB8925
:1006CC003196EA8BFB8B3197E4912E2FE03009F4B5
:1006DC00FCC0E12FE03031F4253211F411E001C0FF
:1006EC00D5D3F2C0E130A1F4253211F4CFD3EBC055
:1006FC0012E040E000E02D3211F401E0E5C02B32B5
:10070C0011F44BE2E1C0203211F440E2DDC002C032
:10071C00E23039F450E013E0203311F40068D4C017
:10072C0003C0E33009F0D0C0203310F02A3308F0B6
:10073C0007C0AAE05A9F502DE22FE0535E0FC4C0B1
:10074C00E22FE33639F4A9D3ABD3A7D3A481AA9370
:10075C00ABD3B9C0E33729F4ADD3AED3E5D21E2F5A
:10076C0007C0E03749F4A6D3A7D3E9D21E2F0860FF
:10077C0002600F7730E02DC0E43611F0E93611F449
:10078C00046002C0E53729F4ECE5F0E09ED315E0F7
:10079C000BC0E83511F4086003C0E83709F093C0CA
:1007AC00E6E6F0E092D314E002FF11C083D390D3BD
:1007BC00AB85AA2332F4EA85FB85A1D3EA87FB87B4
:1007CC004DE2403011F01F5F01C00B7F02C072D3AD
:1007DC007FD300FD10C0151770F407FF08C002FF8F
:1007EC0004C00B7F242F115001C020E301C020E274
:1007FC004DD35150F0CF312F01FF15C0303091F057
:10080C0003FF05C0EE81FF8125915FD305C0AE814A
:10081C00BF812D91AE83BF8339D3503009F0515035
:10082C003150ECCF47C020E3EE81FF8190D3E887B5
:10083C00F987EE81FF81329648D3E885F985AA8540
:10084C00BB85AE17BF0750F02F5FA885B985EA8529
:10085C00FB85EA1BFB0BEA87FB87EFCF2A3328F0DB
:10086C0003FF02C0295F01C0295D04FD19C02133BB
:10087C0020F4A885B985119709F409C0531710F015
:10088C0000FF01C011C020E207FF0AC020E3006195
:10089C0002FF06C00B7F4A9307D3503009F051502A
:1008AC00F5D2503009F051503150A885B9851297C6
:1008BC0008F0B9CF00FF07C0503029F05150E0E2EA
:1008CC00EA93F2D2F9CF10E0F9CEAC85BD853BD3DB
:1008DC0058D364960895FF92F82E26974FD3DE01D5
:1008EC00149609D38D01E0E0EC83ED83EE83EF8366
:1008FC00DE01189600D327D350D21A930A93EFE453
:10090C00F3E04BD2DE011896CFDE3FD32896FF9052
:10091C000895B9D21A93F29AE7E0E093AA01E0E0C5
:10092C00E093B301E093B401E093B501E093B60119
:10093C00449A459AE093BC00E091B900EC7FE093B7
:10094C00B900E981FA81A4EFB1E0EAD21E2F183088
:10095C0008F018501093B800E091BC00E078E56402
:10096C00E093BC00188123960895AA932497F29BD8
:10097C005EC0EA85EE0FE093AB01E885F985E09364
:10098C00AC01F093AD01E0E0E093A801EF81E093BE
:10099C00AE01ED81FE81E093AF01F093B001E0E098
:1009AC00E093A901EC81E093B101E6E0E093AA01A8
:1009BC007894EF81E03079F0E885F9853097B9F1DA
:1009CC00EC81E03021F0AD81BE81109709F001C0BF
:1009DC002EC0F19A0DC0EC81E03021F1ED81FE8149
:1009EC00309729F1E091AB01E160E093AB01F19814
:1009FC00F298E091BC00EF70E06AE093BC00E0E29A
:100A0C00F1EA67E070E06BD2F2990CC0A4D2319796
:100A1C006040704064D229F4E5E0E093AA01F29AB8
:100A2C0006C0F2CFA091AA01E0E075D201C0E0E0CF
:100A3C002B9608950A921A92FA926A937A938A9351
:100A4C009A93AA93BA93EA93FA93EFB7EA9392D252
:100A5C001091A9010091A8013091AE012091AA0139
:100A6C00E12FA091AF01B091B001F0E0EA0FFB1FB4
:100A7C00AF01E091B900E87FE83011F420E002C04A
:100A8C00E03119F4E091AB0110C0E83111F0E8321B
:100A9C0041F5031798F4E02F0F5FA091AC01B091D2
:100AAC00AD01F0E0AE0FBF1FEC91E093BB00E09105
:100ABC00BC00EF70E068E093BC0012C0E091B101A3
:100ACC001E1768F4E091AB01E160E093AB01F19883
:100ADC00E091BC00EF70E06AE093BC000DC138C03F
:100AEC000BC1E03531F4E091BB00DA01EC931F5FF0
:100AFC0002C0E03489F4E091B101E1501E1728F0F6
:100B0C00E091BC00EF70E06804C0E091BC00EF70B5
:100B1C00E06CE093BC00F0C0E83531F4E091BB0030
:100B2C00DA01EC931F5F02C0E03209F402C0E0333B
:100B3C0009F402C0E83469F4203051F4F19B03C08D
:100B4C00031728F005C0E091B1011E1708F424E04A
:100B5C00CCC0E83331F422E0E091BC00EF70E068E7
:100B6C00C8C0E83611F0E83711F422E005C0E036D1
:100B7C0011F0E037A1F420E010E0F198E091B2011F
:100B8C00E03031F421E0E091BC00EF70E06804C08B
:100B9C00E091BC00EF70E06CE093BC00ADC0E038BD
:100BAC0011F0E03939F5F19B02C021E09EC0E091D3
:100BBC00BB00DA01EC931F5FE091B2011E17C0F489
:100BCC00E091B301F091B401309711F426E08DC09F
:100BDC00A0E0E091B301F091B4010995E03039F057
:100BEC00E091BC00EF70E06CE093BC0085C001C0EC
:100BFC00F19A02C0E83809F402C0E83939F4E091FE
:100C0C00BC00EF70E068E093BC0076C0E03AB1F451
:100C1C00E091BC00EF70E06CE093BC00F29AE091C4
:100C2C00B301F091B401309739F0A1E0E091B30138
:100C3C00F091B401099501C026E05EC0E03B11F4CF
:100C4C0022E002C0E83AB1F4E091B501F091B601AE
:100C5C00309759F0A0E0E091B501F091B6010995FB
:100C6C003E2FE03011F020E002C026E03EC000E054
:100C7C00F19802C0E83BF9F4F19B02C021E035C0C9
:100C8C00E02F0F5FA091AC01B091AD01F0E0AE0F81
:100C9C00BF1FEC91E093BB00031728F4E091BC005C
:100CAC00EF70E06C05C0F19AE091BC00EF70E06869
:100CBC00E093BC0021C0E03C11F0E83C99F4E091D9
:100CCC00BC00EF70E06CE093BC00E091B501F091DA
:100CDC00B601309731F0A1E0E091B501F091B60189
:100CEC00099509C0E03041F423E0E091BC00EF70BD
:100CFC00E06DE093BC00F29A1093A9010093A80157
:100D0C002093AA013093AE013CD12696E991EFBF16
:100D1C00F991E991B991A9919991899179916991F7
:100D2C00F990199009901895AED0A991B991EE2728
:100D3C00FF276D91662311F03196FBCF0895A3D058
:100D4C00AA27BB27E991F9910590002011F0119683
:100D5C00FBCFFD010895AA93E881A1E0D4D00895BA
:100D6C00E0919701F0E0E058FE4FA0919801A0832C
:100D7C000895F0E0E058FE4FA0810895E091A7019E
:100D8C000895B0E0AEC0E0E0E8830895A881B0E03B
:100D9C00A058BE4FE881F0E00895FA93EA930895C5
:100DAC0080E099DD22960895A1E030CCA0E02EDC05
:100DBC00A1E05BCCFF2766277727D7D00895ED817C
:100DCC00EA93FE013296E9CFE8DFEACFE1E0EA935D
:100DDC000895E0918201EA93A7E00895E0918601DD
:100DEC00EA93A0E00895C0D9E0938601E0918901CF
:100DFC00EA93A0E00895B8D9E0938901E0918101CC
:100E0C00EA93A3E00895B0D9E09381010895E091AD
:100E1C008101EA93A4E0F7CFE0918501EA93A1E088
:100E2C00A3C99ED9E0938601E0918901EA93A0E0E1
:100E3C00089596D9E0938901E0918101EA93A3E0AA
:100E4C00E2CFE0918101EA930895E0918501EA9364
:100E5C000895A091810152DB8A92E2E0EA93A0917D
:100E6C0082014CDB8A92E5E0EA93A091850146CBA6
:100E7C008A92E0E0EA93E09180010895E09182018A
:100E8C00EA93A0E00895BA93AA9308952A93AD85A6
:100E9C00BE85EF85F88909950895E889F989089543
:100EAC003497E88BF98B0895AD85BE85EF85F8896D
:100EBC0009950895F2DFF4CFA889B989149643D027
:100ECC00EE83FF83AE81BF810895EE83FF83089587
:100EDC00A889B989149637D0EA87FB87089540D042
:100EEC000895109639F08AEF90E00197F1F7A895E4
:100EFC001197C9F708950024AF0DB01D0895F19511
:100F0C00E195F0400895EE230E2EEA2F19F0EE0F26
:100F1C000A94E9F70895EA17E1E009F0EE2708953D
:100F2C000024112490E1AA0FBB1F001C111C0E1AE7
:100F3C001F0A18F40E0E1F1E01C0A1609A9599F796
:100F4C00FD01D0010895ED91FC9111970895059044
:100F5C00F491E02D0895E881F9816A817B810895EF
:100F6C00E883F9836A837B8308957A936A93FA936F
:100F7C00EA9308955A934A933A932A931A930A93AD
:100F8C0008955D814C813B812A81198108810895E6
:00000001FF
