:020000008FC0AF
:10000200FECFFDCFFCCFFBCFFACFF9CFF8CFF7CFA2
:10001200F6CFF5CFF4CFF3CFF2CFF1CFF0CFEFCFD2
:10002200EECFB3C0ECCF09C1EACFE9CFE8CF05C527
:10003200E6CF8F0A00FFFF808200000000008F02DF
:1000420000FFFF400200000000000000000000006E
:10005200000000000000000000001027E803640018
:100062000A00010000100001100001000000000061
:10007200FF10FFFF0000000034343930206D6F6440
:10008200650A0D0043757272656E74206D6F64654A
:100092003A2025690A0D004469676974616C20463B
:1000A200696C7465723A20534C4F573D25692C2078
:1000B20053443D25692C2053534C4F573D25690A23
:1000C2000D007772697465206572726F72210A0D74
:1000D200006572726F7220636F6E74726F6C0A0DBC
:1000E200004453440A0D0050434D0A0D0034342E8F
:1000F20031206B487A0A0D003438206B487A0A0D99
:1001020000363D25582C393D25580D0A00000700C0
:100112000C0003006E000100AA0110010000F89417
:10012200EE27EFBBE5BF8DE0A2E0BB27ED938A95FA
:10013200E9F780E092E0A0E0B1E0ED930197E9F702
:10014200E2E1F1E085919591009761F0A591B59179
:1001520005901590BF01F00105900D920197E1F70E
:10016200FB01F0CFE0E0EEBBEFEFEDBFE2E0EEBF70
:10017200C0E8D1E0A9C0F2D5A981EA2B04C0EED52E
:10018200E095A981EA23229608950A921A92FA9298
:100192006A937A938A939A93AA93BA93EA93FA9375
:1001A200EFB7EA93C3D61091C0000091C600E12FC9
:1001B200EC7199F5EC2DC394F0E0EA56FE4F008302
:1001C200E8E0EC1509F4CC24E394E8E0EE1511F430
:1001D200EE24F09AE2E0EE1501F5E0919601F0E0EE
:1001E200E130A0E0FA0771F44C9B06C0A0919701A0
:1001F200A63108F4B8D505C0A0919701AA3008F439
:10020200B2D50AC0E230A0E0FA0731F4A0E43AD055
:10021200E0919701B1D536D0EE2409911991E99177
:10022200EFBFF991E991B991A99199918991799148
:100232006991F990199009901895AA93EA93FA9303
:10024200EFB7EA939ED5E030B9F09BD5E150E09349
:10025200A701E091A601EF5FE093A601E150F0E073
:10026200E256FE4FE081E093C600A091A601A830BD
:1002720019F4E0E0E093A601E991EFBFF991E99169
:10028200A9911895AA93A091A701A830E1F3F89437
:1002920078D5E03021F4E091C000E07281F4ED2DD8
:1002A200D394F0E0E256FE4FA881A083E8E0ED157A
:1002B20009F4DD2466D5EF5FE093A70103C0E8816E
:1002C200E093C6007894E6C1E0E8E0936100E0E0E4
:1002D200E0936100E4E0E4B9E3E0E5B9E7B9E0E026
:1002E200E8B9EAB9E0E9EBB9E0E0E4BDE5BDE6BDB5
:1002F200E7BDE8BDE0938000E0938100E0938500D4
:10030200E0938400E0938700E0938600E093890005
:10031200E0938800E0938B00E0938A00E093B600BC
:10032200E093B000E093B100E093B200E093B30039
:10033200E093B400E0936E00E0936F00E0937000EE
:10034200E0936900EDBBE0936800E093C000E8ED44
:10035200E093C100E6E0E093C200E0E0E093C50074
:10036200ECE0E093C400E0E8E0BFE0E0E0937B0073
:10037200E0937F00E0937A00ECBDAEE3B0E0CCD234
:100382007894552009F048C02497E0E0E883E98397
:10039200EA83EB83A8ECF8D4E0E0EA83EB832A98C3
:1003A200A4E6F2D42A9AA4E6EFD4A1E061D14C9B50
:1003B20010C02197EBD4EAD4A881A63148F4E9D43D
:1003C200E05CFF4FE491EC93E881EF5FE883F4CFC8
:1003D20019C02197DBD4EAE7F0E0E2D4E4D4D6D422
:1003E200A881AA3078F4D5D4EC5CFF4FE491EC9369
:1003F2008A92E981EA93EA81BFD48AD0E881EF5FE9
:10040200E883EECF2196A2E3BFD4E1E05E2E05D1D0
:10041200A0E02ED124967AC02297A0E04A99A1E0CA
:10042200E0E03399E1E0EE0FEA0FE983A0E04F99B3
:10043200A1E0E1E0EA9F602DA0E01899A1E0E2E0EE
:10044200EA9FF0016E0FA0E01999A1E0E4E0EA9FB3
:10045200F001E60FE883E0E01E99E1E0A92DB0E0AB
:10046200F0E0E7FDFFEFEA17FB0741F0E0E01E993D
:10047200E1E09E2EA0E01E99A1E0FAD0A981BB275F
:10048200E0E04B99E1E0F0E0AE0FBF1FE72DF0E0B6
:10049200EA17FB07F1F0A1E0EBD0A9815FD0E0E021
:1004A2004B99E1E0A981EA0F7E2E4C9908C0A981FF
:1004B200AC3010F0A1E001C0A0E0DAD002C0A0E0B0
:1004C200D7D0E6E8F0E06CD4EB8171D484E006D2B8
:1004D2002696A881AA16C9F0A1E0CAD0A5D09DD0BF
:1004E200A880E9E9F0E05CD4E0E01999E1E05FD4AA
:1004F200E0E01899E1E05BD4E0E04F99E1E057D405
:100502008CE0ECD12E96A0E0B3D022963ACFFFCF6A
:10051200AA9322971A9310E0EC81E983EB81EA8394
:100522004BD4E2E0EA93E0E0F0E03AD4A0E020D25B
:10053200E03019F4E4ECF0E044D4A8EC25D43CD447
:1005420042D4E6E0F0E02CD4A1E012D2E03019F47B
:10055200E3EDF0E036D4188126960895AA934E9BD7
:1005620006C0E3EEF0E02DD431D405DE05C0E9EE9D
:10057200F0E027D42BD403DEE0938201E881F0E09F
:10058200309721F428D4FBDD2BD41AC0E130A0E04F
:10059200FA0721F420D4EFDD23D412C0E230A0E028
:1005A200FA0719F418D4EBDD06C0E330A0E0FA072D
:1005B20049F411D4E0DDE0938601E091890117D47A
:1005C200E09389014B9B05C0409A4198EFEEF0E021
:1005D20004C04098419AEAEFF0E0FA93EA93E3D339
:1005E200E3E0F1E0DDD3E0918601E1D3E09189011E
:1005F200DED388E073D12A968A92E5D3FBD38A921E
:10060200E6E0EA93A091860183DF8A92E9E0EA9329
:10061200A09189017DDF01D03DC0FBD3EE7FFFD3E6
:10062200F8D3E160FCD308954F9B04C0E0918501AB
:10063200DED303C0E0918501F6D3E0938501189BD8
:1006420003C0F4D398DD02C0F1D399DDE0938101B8
:10065200199B04C0E0918201CAD303C0E0918201D8
:10066200E2D3E09382018A92AED3C4D3D6DF089557
:10067200AA93E881E03021F0E0918101B8D303C070
:10068200E0918101D0D3E09381018A929CD3A09121
:1006920081013EDF21960895CED3AA81F3DDA881A0
:1006A200B981ED91FD913196FE93EE935FC1C3D373
:1006B200269738D410E0AC85BD85E0E0F0E0ED93FC
:1006C200FC93EA89FB893196EA8BFB8B3197E491A3
:1006D2002E2FE03009F4FCC0E12FE03031F4253256
:1006E20011F411E001C0AAD3F2C0E130A1F4253225
:1006F20011F4A4D3EBC012E040E000E02D3211F47B
:1007020001E0E5C02B3211F44BE2E1C0203211F4DA
:1007120040E2DDC002C0E23039F450E013E02033A1
:1007220011F40068D4C003C0E33009F0D0C0203314
:1007320010F02A3308F007C0AAE05A9F502DE22F8A
:10074200E0535E0FC4C0E22FE33639F47ED380D388
:100752007CD3A481AA9380D3B9C0E33729F482D38E
:1007620083D3E5D21E2F07C0E03749F47BD37CD375
:10077200E9D21E2F086002600F7730E02DC0E43608
:1007820011F0E93611F4046002C0E53729F4ECE512
:10079200F0E073D315E00BC0E83511F4086003C034
:1007A200E83709F093C0E6E6F0E067D314E002FF11
:1007B20011C058D365D3AB85AA2332F4EA85FB85F1
:1007C20076D3EA87FB874DE2403011F01F5F01C00C
:1007D2000B7F02C047D354D300FD10C0151770F42D
:1007E20007FF08C002FF04C00B7F242F115001C075
:1007F20020E301C020E222D35150F0CF312F01FF7C
:1008020015C0303091F003FF05C0EE81FF812591C4
:1008120034D305C0AE81BF812D91AE83BF830ED389
:10082200503009F051503150ECCF47C020E3EE81F7
:10083200FF8165D3E887F987EE81FF8132961DD368
:10084200E885F985AA85BB85AE17BF0750F02F5FF3
:10085200A885B985EA85FB85EA1BFB0BEA87FB873E
:10086200EFCF2A3328F003FF02C0295F01C0295DC0
:1008720004FD19C0213320F4A885B985119709F424
:1008820009C0531710F000FF01C011C020E207FF9A
:100892000AC020E3006102FF06C00B7F4A93DCD24C
:1008A200503009F05150CAD2503009F051503150F5
:1008B200A885B985129708F0B9CF00FF07C050305C
:1008C20029F05150E0E2EA93C7D2F9CF10E0F9CE15
:1008D200AC85BD8510D32DD364960895FF92F82E72
:1008E200269724D3DE011496DED28D01E0E0EC835C
:1008F200ED83EE83EF83DE011896D5D2FCD250D27F
:100902001A930A93EDE4F3E04BD2DE011896CFDEA0
:1009120014D32896FF9008958ED21A93F29AE7E0A4
:10092200E093AA01E0E0E093B301E093B401E09325
:10093200B501E093B601449A459AE093BC00E09178
:10094200B900EC7FE093B900E981FA81A4EFB1E04C
:10095200BFD21E2F183008F018501093B800E09143
:10096200BC00E078E564E093BC001881239608950A
:10097200AA932497F29B5EC0EA85EE0FE093AB0147
:10098200E885F985E093AC01F093AD01E0E0E093F6
:10099200A801EF81E093AE01ED81FE81E093AF010A
:1009A200F093B001E0E0E093A901EC81E093B101A2
:1009B200E6E0E093AA017894EF81E03079F0E885EF
:1009C200F9853097B9F1EC81E03021F0AD81BE813B
:1009D200109709F001C02EC0F19A0DC0EC81E030F1
:1009E20021F1ED81FE81309729F1E091AB01E160C7
:1009F200E093AB01F198F298E091BC00EF70E06AED
:100A0200E093BC00E0E2F1EA67E070E040D2F299E4
:100A12000CC079D231976040704039D229F4E5E0B8
:100A2200E093AA01F29A06C0F2CFA091AA01E0E0F7
:100A32004AD201C0E0E02B9608950A921A92FA92E5
:100A42006A937A938A939A93AA93BA93EA93FA93BC
:100A5200EFB7EA9367D21091A9010091A8013091F2
:100A6200AE012091AA01E12FA091AF01B091B00196
:100A7200F0E0EA0FFB1FAF01E091B900E87FE83038
:100A820011F420E002C0E03119F4E091AB0110C092
:100A9200E83111F0E83241F5031798F4E02F0F5FC7
:100AA200A091AC01B091AD01F0E0AE0FBF1FEC918F
:100AB200E093BB00E091BC00EF70E068E093BC0003
:100AC20012C0E091B1011E1768F4E091AB01E16040
:100AD200E093AB01F198E091BC00EF70E06AE09323
:100AE200BC000DC138C00BC1E03531F4E091BB0050
:100AF200DA01EC931F5F02C0E03489F4E091B101A6
:100B0200E1501E1728F0E091BC00EF70E06804C0CD
:100B1200E091BC00EF70E06CE093BC00F0C0E835FF
:100B220031F4E091BB00DA01EC931F5F02C0E032C6
:100B320009F402C0E03309F402C0E83469F4203059
:100B420051F4F19B03C0031728F005C0E091B101F5
:100B52001E1708F424E0CCC0E83331F422E0E0911F
:100B6200BC00EF70E068C8C0E83611F0E83711F455
:100B720022E005C0E03611F0E037A1F420E010E0F9
:100B8200F198E091B201E03031F421E0E091BC0053
:100B9200EF70E06804C0E091BC00EF70E06CE0939D
:100BA200BC00ADC0E03811F0E03939F5F19B02C06C
:100BB20021E09EC0E091BB00DA01EC931F5FE0915F
:100BC200B2011E17C0F4E091B301F091B401309765
:100BD20011F426E08DC0A0E0E091B301F091B401E0
:100BE2000995E03039F0E091BC00EF70E06CE093E1
:100BF200BC0085C001C0F19A02C0E83809F402C005
:100C0200E83939F4E091BC00EF70E068E093BC0091
:100C120076C0E03AB1F4E091BC00EF70E06CE09392
:100C2200BC00F29AE091B301F091B401309739F02F
:100C3200A1E0E091B301F091B401099501C026E071
:100C42005EC0E03B11F422E002C0E83AB1F4E09168
:100C5200B501F091B601309759F0A0E0E091B501ED
:100C6200F091B60109953E2FE03011F020E002C06C
:100C720026E03EC000E0F19802C0E83BF9F4F19BA7
:100C820002C021E035C0E02F0F5FA091AC01B0910E
:100C9200AD01F0E0AE0FBF1FEC91E093BB00031774
:100CA20028F4E091BC00EF70E06C05C0F19AE0918D
:100CB200BC00EF70E068E093BC0021C0E03C11F0A2
:100CC200E83C99F4E091BC00EF70E06CE093BC006A
:100CD200E091B501F091B601309731F0A1E0E091D9
:100CE200B501F091B601099509C0E03041F423E065
:100CF200E091BC00EF70E06DE093BC00F29A1093BB
:100D0200A9010093A8012093AA013093AE0111D149
:100D12002696E991EFBFF991E991B991A99199913B
:100D2200899179916991F99019900990189583D0D8
:100D3200A991B991EE27FF276D91662311F03196A3
:100D4200FBCF089578D0AA27BB27E991F9910590A6
:100D5200002011F01196FBCFFD010895AA93E881BE
:100D6200A1E0A9D00895E0919701F0E0E058FE4F8C
:100D7200A0919801A0830895F0E0E058FE4FA08171
:100D82000895E091A7010895B0E083C0E0E0E88310
:100D92000895A881B0E0A058BE4FE881F0E0089520
:100DA200FA93EA93089580E099DD22960895FF2749
:100DB20066277727B2D00895ED81EA93FE01329635
:100DC200EFCFEEDFF0CFE1E0EA930895E091820108
:100DD200EA93A7E00895E0918601EA93A0E00895DE
:100DE200E0938601E0918901EA93A0E0C8C9EA9301
:100DF200A0E0C1C9A09181018BDB8A92E2E0EA9373
:100E0200A091820185DB8A92E5E0EA93A0918501B7
:100E12007FCB8A92E0E0EA93E09180010895AE2FC1
:100E220077DBA2E3B1CFEA93A0E0A9C9E091810107
:100E3200EA93A5E00895BA93AA9308952A93AD85FB
:100E4200BE85EF85F88909950895E889F98908959D
:100E52003497E88BF98B0895AD85BE85EF85F889C7
:100E620009950895F2DFF4CFA889B989149643D081
:100E7200EE83FF83AE81BF810895EE83FF830895E1
:100E8200A889B989149637D0EA87FB87089540D09C
:100E92000895109639F08AEF90E00197F1F7A8953E
:100EA2001197C9F708950024AF0DB01D0895F1956B
:100EB200E195F0400895EE230E2EEA2F19F0EE0F81
:100EC2000A94E9F70895EA17E1E009F0EE27089598
:100ED2000024112490E1AA0FBB1F001C111C0E1A42
:100EE2001F0A18F40E0E1F1E01C0A1609A9599F7F1
:100EF200FD01D0010895ED91FC911197089505909F
:100F0200F491E02D0895E881F9816A817B81089549
:100F1200E883F9836A837B8308957A936A93FA93C9
:100F2200EA9308955A934A933A932A931A930A9307
:100F320008955D814C813B812A8119810881089540
:00000001FF
